:020000040800F2
:10000000C80B0020010100087326000869220008BF
:100010007126000819080008912D00080000000052
:100020000000000000000000000000006929000836
:100030001B08000800000000952600086B29000836
:100040001B0100081B0100081B0100081B01000820
:100050001B0100081B0100081B0100081B01000810
:100060001B0100081B0100081B0100081B01000800
:100070001B0100081B0100081B0100081B010008F0
:100080001B0100081B0100081B0100081B010008E0
:100090001B0100081B0100081B0100081B010008D0
:1000A0001B0100081B0100081B0100081B010008C0
:1000B0000D2A00081B0100081B0100081B01000895
:1000C0001B0100081B0100081B0100081B010008A0
:1000D0001B010008852D00081B0100081B010008FA
:1000E0001D0800081B0100081B010008DFF80CD0E8
:1000F00000F0DCFA00480047E9360008C80B002091
:100100000648804706480047FEE7FEE7FEE7FEE7B1
:10011000FEE7FEE7FEE7FEE7FEE7FEE7C52900088B
:10012000ED000008202A04DB203A21FA02F0002129
:10013000704721FA02F3D040C2F1200291400843F7
:1001400019467047D2B201E000F8012B491EFBD2DC
:1001500070470022F6E710B513460A4604461946D2
:10016000FFF7F0FF204610BDF0B480EA0102D40F83
:100170004200B2EB410F02D20246084611464A0045
:1001800042D0C30DDDB2C1F3C752AD1A202D35DA0E
:10019000C1F3160141F4000204B15242C5F1200638
:1001A00002FA06F12A411044B3EBD05F23D0C4B168
:1001B000012DA0EBC35009DCF0BC4FF0004202EA75
:1001C000C352DBB200F5000000F089B8400000F136
:1001D000807000EBC350A0F1807040EAD1704900FC
:1001E00009E0490841EAC071A0EBC35000F50000E6
:1001F000400800EBC350F0BC00F068B86142012237
:1002000002EB4101001BF6E7F0BC704781F00041B2
:10021000AAE780F00040A7E700F0004230F000407D
:100220000AD0C10D01F56071C0F3160042EA015118
:10023000C20840071143704700200146704730B59F
:100240000B46014600202022012409E021FA02F594
:100250009D4205D303FA02F5491B04FA02F528442E
:10026000151EA2F10102F1DC30BD2DE9F05F05465B
:10027000002092469B4688460646814640241BE065
:100280002846414647462246FFF74CFF53465A460A
:10029000C01A914110D311461846224600F018FAB0
:1002A0002D1A67EB01084F4622460120002100F07D
:1002B0000FFA17EB00094E41201EA4F10104DFDC08
:1002C000484631462A464346BDE8F09F0029A8BF6C
:1002D0007047401C490008BF20F00100704710B46F
:1002E000B0FA80FC00FA0CF050EA010404BF10BC24
:1002F000704749B1CCF1200421FA04F411FA0CF151
:1003000018BF012121430843A3EB0C01CB1D4FEA89
:1003100000614FEA102042BF002010BC704700EB84
:10032000C35010440029A4BF10BC7047401C4900B2
:1003300008BF20F0010010BC70472DE9FE4F804639
:1003400081EA0300C00F0C46009021F0004123F029
:100350000045B8EB0200A94105D24046214690462F
:100360001C460B46024623F00040104347D0270DA1
:10037000C7F30A00C3F30A510290401A01904028C3
:100380006BDAC3F3130040F4801B0098924620B14F
:100390000023D2EB030A63EB0B0B01985946C0F123
:1003A0004002504600F094F906460D465046594624
:1003B000019A00F09CF910EB08006141002487EAE3
:1003C000115284EAE7731A4340D0009A62B3019A4B
:1003D000012A4FEA075215DC001B61EB02014FF0C6
:1003E000004202EA0752CDE90042001C41F58011AB
:1003F00032462B4600F09CF903B0BDE8F08F404632
:100400002146F9E7001B61EB0201001C41F5801356
:1004100000185B412018A2F5001747EB030140EAE2
:10042000D570B6196D4111E06D084FEA360645EA00
:10043000C0754FEA0752001B61EB0201001C41F539
:10044000801149084FEA30000019514132462B46CD
:1004500003B0BDE8F04F00F05CB900980122400005
:100460000023D0EB020263EBE073009821464FEAD1
:10047000E074B8EB000061EB0401E9E783F00043AE
:100480005BE781F0004158E72DE9FE4F81EA030464
:1004900004F0004421F0004100944FF0000B23F0E1
:1004A000004350EA01045ED052EA03045BD0C3F378
:1004B0000A54C1F30A552C44A4F2F3340194A0FB6E
:1004C0000254C1F3130141F48011C3F3130343F445
:1004D000801301FB024400FB034E840A970A44EA9E
:1004E000815447EA8357A4FB076802958D0A05FBF0
:1004F00007854FEA932C04FB0C542705029D4FEA15
:10050000065847EA1637B5EB08056EEB070C870E61
:10051000920E47EA811742EA8312A7FB0201B6EB6B
:100520000B0164EB00042B0D43EA0C335E1844EB23
:100530001C50DA465146E7FB0201C5F313044FEAAB
:100540000B3343EA14534FEA0432019C43EA060397
:10055000A4F10C040294009CCDE900B400F0E8F88A
:1005600003B0BDE8F08F00200146F9E72DE9F04D1A
:1005700081EA030404F0004B21F0004514464FF0DB
:10058000000A23F0004150EA050220D054EA01029B
:100590001DD0C5F30A570246C5F31303C1F3130078
:1005A000C1F30A5640F4801543F48013A7EB060804
:1005B000101BD64608F2FD3873EB050002D308F194
:1005C000010801E092185B41B8F1000F03DA002046
:1005D0000146BDE8F08D00204FF4801106468446A8
:1005E0000EE0171B73EB050705D3121B63EB050326
:1005F00006434CEA010C49084FEA300092185B416F
:1006000050EA0107EDD152EA030012D082EA040059
:1006100083EA0501084305D0101BAB4106D2012235
:10062000002306E000224FF0004302E06FF00102D9
:1006300053101AEB06004CEB085110EB0A0041EB8B
:100640000B01BDE8F04D00F064B8C1F30A52C1F3EC
:10065000130140F2FF3341F480119A4202DA002084
:100660000146704740F233439A42A2F2334202DC21
:100670005242FFF757BD00F02BB8000030B5041E02
:1006800071F1000404DB4FF00044404264EB0101CF
:10069000141E73F1000405DB1C464FF00043524268
:1006A00063EB0403994208BF904230BD064C074DEE
:1006B00006E0E06840F0010394E807009847103432
:1006C000AC42F6D3FFF716FD304D0008504D000840
:1006D000202A04DB203A00FA02F100207047914002
:1006E000C2F1200320FA03F3194390407047202AF7
:1006F00006DBCB17203A41FA02F043EAE07306E04A
:1007000041FA02F3D040C2F1200291400843194659
:10071000704710B5141E73F1000408DA401C41F153
:10072000000192185B411A4301D120F0010010BD75
:100730002DE9F04D92469B4611B1B1FA81F202E0EB
:10074000B0FA80F220329046FFF7C2FF04460F460F
:1007500040EA0A0041EA0B0153465A46084313D0C7
:10076000114653EA010019D0C8F140025046FFF784
:10077000D9FC05460E46504659464246FFF7A8FFAB
:10078000084305D0012004E020463946BDE8F08D3D
:100790000020054346EAE0762C4337430A98630578
:1007A000E40AA0EB08000022FD0A44EA47540A309C
:1007B00002D500200146E9E7010510196941DDE98C
:1007C000084500196941BDE8F04DA2E770B504463F
:1007D00000688168C943C9071CD1816821F0010103
:1007E000816000F003FC05460FE000BF00F0FEFB57
:1007F000401B022809D9A06A40F01000A062E06AFC
:1008000040F00100E062012070BD20688068C043B4
:10081000C007EBD0002070BDFEE7704710B54FF465
:10082000806000F0EFFA4FF4006000F0EBFA4FF454
:10083000805000F0E7FA4FF4005000F0E3FA4FF474
:10084000804000F0DFFABDE810404FF4004000F0B7
:10085000D9BA0000F8B50024009490F82420254669
:10086000012A12D0012280F824204A681F23072A77
:100870000DD20668776B521E02EB820293409F43B3
:100880000B6893401F43776319E00220F8BD0668A8
:100890000D2A0AD2376BD21F02EB820293409F438C
:1008A0000B6893401F43376309E0F76A0D3A02EB88
:1008B000820293409F430B6893401F43F7620A688C
:1008C000072306680A2A0AD3F7680A3A02EB4202AB
:1008D00093409F438B6893401F43F76008E037695C
:1008E00002EB420293409F438B6893401F43376162
:1008F0000A68102A01D0112A20D1124B02689A42AC
:1009000017D193681B0219D4936843F400039360D2
:100910000968102912D10C490C4A0968B1FBF2F19F
:1009200001EB8101490000E0491E00910029FBD143
:1009300004E0816A41F020018162012480F82450A2
:100940002046F8BD002401405C00002040420F001A
:100950002DE9F0414FF0000704003D467ED0A06A2B
:10096000002628B9E66284F82460204600F07EF86C
:100970002046FFF72BFFA16AC90600D420B1A06A68
:1009800040F01000A06269E0A16A21F4885141F0B2
:100990000201A1626268E169E3680A4347EA430130
:1009A0000A43A1684FF48077B94209D0012907D0E2
:1009B0005FF00001D4F814C0BCF1010F02D00AE0CE
:1009C0003946F7E7F3B1A36A43F02003A362E36A71
:1009D00043F00103E3622368D3F804C02CF4694CAC
:1009E0004CEA010CC3F804C021688B68DFF870C0C2
:1009F00003EA0C0313438B60A168B9420BD00129B1
:100A000009D00CE0DFF85CC0A3690CEB43330B4367
:100A100043F40061DFE7218A0D05A5F58015216803
:100A2000CB6A23F470032B43CB62216889680E4B99
:100A30001940914208D1E662A16A21F0020141F019
:100A40000101A162BDE8F081A06A20F0020040F03F
:100A50001000A062E06A40F00100E0620120F1E7CE
:100A6000FDF7E1FF00E0FFFFFE0E1FFF00B585B0C0
:100A70000021009101910291039100680E49884282
:100A800018D10E48816941F400718161816901F4D6
:100A900000710491816941F00401816180696946B6
:100AA00000F004000490012000900320019004480D
:100AB00000F0B4F905B000BD002401400010024070
:100AC0000008014010B590F821100024022903D03D
:100AD0000421816301243DE001680A6822F00E02CE
:100AE0000A6001680A6822F001020A601A4A016875
:100AF000914201D1012121E0174A1432914201D1E2
:100B000010211BE0144A2832914201D1891515E0C9
:100B1000114A3C32914201D189140FE00E4A503201
:100B2000914202D14FF4803108E00B4A6432914285
:100B300002D14FF4801101E04FF08071064A083A6B
:100B40005160012180F82110002180F82010416BB4
:100B500001B18847204610BD080002402DE9F0474A
:100B600091490020401C8842FCDB904E4FF480519C
:100B7000304600F031FA8E4C48BB4FF07C51206972
:100B8000FFF7F2FA2061206800211E30206008463D
:100B900001F0AEFD2069FFF73FFB02460B4685A141
:100BA00004F12C0002F0F6F80122844904F12C0033
:100BB00001F0A2FE01F0B4FE0021282001F098FD12
:100BC00001227E497EA001F097FE01F0A9FE4FF4BC
:100BD000005A5146304600F0FFF90127002538B988
:100BE000E06868B1AE2200217820E56002F0FCFDEB
:100BF0004FF480494946304600F0EEF948B128E00C
:100C0000E76001F07BFD002001F066FD01F088FE49
:100C1000EEE720686BA1401D206062696448521DA8
:100C20003130626102F0B6F80021412001F060FD30
:100C3000012262492B2001F00FFE0021522001F019
:100C400057FD5B4801225D49313001F055FE01F04E
:100C500067FE4FF40041B046304600F0BDF958BB86
:100C6000A2685948594E4FF48071012A73D000226E
:100C700000F0B7F901225146304600F0B2F90022E7
:100C80004946304600F0ADF95148A76001F058F8E8
:100C90002821084601F02CFD01224E494EA001F00A
:100CA0002BFE3221282001F023FD012249494CA0CE
:100CB00001F022FE01F034FE4FF40061404600F0E6
:100CC0008BF900286ED1256125603948A5602A4638
:100CD0003CA13130656102F05DF80021084601F069
:100CE00007FD2069FFF798FA024631480B4631A10B
:100CF0002C3002F04FF82E48012230492C3001F000
:100D0000FBFD0021412001F0F3FC01222B492B20A7
:100D100001F0A2FD0021522001F0EAFC0122274946
:100D200031A001F0E9FD01F0FBFD2821084601F0AA
:100D3000DFFC0122274928A001F0DEFD3221282016
:100D400001F0D6FC0122234928A001F0D5FDBDE821
:100D5000F04701F0E5BD0122A56000F042F9002254
:100D60005146304600F03DF901224946304600F038
:100D700038F9174800F0F0FF002001F0ADFC01F059
:100D8000CFFD2821084601F0B3FC0122114919A02A
:100D900001F0B2FD3221282001F0AAFC01220D4908
:100DA00017A085E7BDE8F08745420F00000C014021
:100DB00018000020252E31660000000008000020E9
:100DC0006872000025750000000801400010014015
:100DD000440500200000002054494D455200000009
:100DE000535441525445440030000000524553458D
:100DF0005400000053574954434845440000000044
:100E00004F464600044910B50A68024202D0086005
:100E1000FFF7A4FE10BD0000140401402DE9F84FB7
:100E2000DFF890A100220AF1040B144601274FF0CD
:100E30000F090BF1040E00BF0B6807FA04F52B40F5
:100E4000AB4274D1DFF870C14E68A6EB0C08664562
:100E50002BD00DDC032E34D005DC36B3012E19D097
:100E6000022E2FD11BE0112E16D0122E2AD119E0FE
:100E7000B8F5881F19D006DCB8F5803F15D0B8F555
:100E8000801F1FD111E0B8F5001F0ED0B8F5041F68
:100E900018D10AE0CA6815E0CA68121D12E0CA68D3
:100EA00008320FE0CA680C320CE08A682AB1012AC5
:100EB0004FF0080203D0456104E0042202E005611E
:100EC00000E00022FF2B01D8064601E000F10406F5
:100ED0004FEA840501D9A5F12005D6F800C009FA2A
:100EE00005F82CEA080C02FA05F54CEA050CC6F8E0
:100EF00000C04D68ED0057D5304DAE6946F0010693
:100F0000AE61AD6924F0030605F0010500952C4D96
:100F100006EB050CDCF80850A6074FEA167809FA2C
:100F200008F6B543274EB04202D1002610E03BE060
:100F3000254EB04201D101260AE0244EB04201D133
:100F4000022605E0224EB04201D1032600E004262D
:100F500006FA08F62E43CCF808604D68DAF800600F
:100F6000ED03554601D51E4300E09E432E604D68BB
:100F7000DBF80060AD035D4601D51E4300E09E43F3
:100F80002E604D68DEF80060ED02754601D51E4307
:100F900000E09E432E604D68AD020E4D2E6801D5D7
:100FA0001E4300E09E432E60641C102CFFF444AFEF
:100FB000BDE8F88F0004014000001110001002404D
:100FC0000000014000080140000C014000100140F9
:100FD000001401400C0401408068084000D001204A
:100FE00070470AB1016170470904FBE70148806856
:100FF000704700005000002070B504001BD094F82A
:101000003D00002520B984F83C50204600F0E0F96E
:10101000242084F83D002068016821F0010101606E
:1010200000F0C6FB404A6168914201D83F4900E0A8
:101030003F49884201D2012070BD3E492368B0FB80
:10104000F1F159606368934206D94FF4967359439E
:101050004FF47A73B1FBF3F12368491C196261689C
:10106000914210D84900401EB0FBF1F2521CC2F36D
:101070000B02042A01D2042022E0B0FBF1F0401C54
:10108000C0F30B001CE0A368CBB301EBC10202EB81
:101090000116421EB2FBF6F2521C42F480421205C7
:1010A00036D06BB301EBC10202EB0111401EB0FB65
:1010B000F1F0401CC0F30B0040F4804040F40040CD
:1010C0002168C861D4E90701084321680860D4E9B0
:1010D0000310084321688860D4E9050108432168AA
:1010E000C8602068016841F001010160256420208A
:1010F00084F83D00256384F83E50002070BD00E078
:1011000008E001EB4106421EB2FBF6F2521CC6E7B4
:101110000120D5E701EB4101401EB0FBF1F0401C7E
:10112000C0F30B00CAE70000A086010080841E0007
:1011300000093D0040420F002DE9FF4F81B0994664
:101140008B4604464FF00108FFF750FF054694F820
:101150003D0020287BD1192301224D4920460095CE
:1011600001F009F9002872D194F83C0001286ED0F2
:10117000012084F83C0020680168C90703D1016898
:1011800041F0010101602068016821F40061016003
:10119000242084F83D00002626643E48E062202793
:1011A0002068016841F4807101604B4600224FF0D5
:1011B00001112046009501F0DEF8002858D1216881
:1011C0000BF0FE000861FFF711FF21680546486932
:1011D0004969C0F3400094F83D20C1F380214FF0ED
:1011E000A00A12E0B9F1000F04D0FFF7FFFE411B87
:1011F000494501D984F83DA0216848694969C0F38F
:10120000400094F83D20C1F38021084301D1A02A79
:10121000E8D184F83D7020684169C943890717D433
:10122000016841F4007101602068416980691923F7
:10123000012217492046009501F09DF8C0B984F8B5
:101240003D7084F83C60002005B0BDE8F08F1DE0E3
:10125000016841F40071016021686FF480604861A9
:10126000192301220A492046009501F084F808B1AB
:101270000320E9E74146039808F1010881428FD332
:1012800084F83D7084F83C600120DDE70220DBE754
:10129000020010000000FFFF2DE9F84F1F469046A6
:1012A0008A460446DDF82890FFF7A0FE064694F82B
:1012B0003D0020287ED11923012243492046009673
:1012C00001F059F800287DD194F83C00012879D02C
:1012D000012084F83C0020680168C90703D1016837
:1012E00041F0010101602068016821F400610160A2
:1012F000212084F83D00102084F83E00002525645C
:10130000C4F8248067853148E062608D20853346CB
:101310004A465146204600F0BDFF28B1206C84F8B3
:101320003C5004284CD00DE0206841698069009051
:1013300030E032464946204601F092F828B1206C50
:10134000042838D00320BDE8F88F606A411C616230
:10135000216800780861608D401E6085208D401EE8
:1013600080B2208521684A69D24352070BD450B11C
:10137000606A421C626200780861608D401E608570
:10138000208D401E208532464946204600F0CCFF85
:101390000028D4D1208D0028CBD154F83D0B016812
:1013A00041F400710160202004F81E09E57765779B
:1013B0000020C8E706E02068016841F40071016080
:1013C0000120C0E70220BEE7020010000000FFFF7E
:1013D00010B586B00021009101910291039100683F
:1013E0000F4988421AD10F4CA06940F00800A06153
:1013F000A069694600F008000490C0200090122007
:101400000190032003900848FFF708FDE06940F4CD
:101410000010E061E06900F40010049006B010BD17
:101420000054004000100240000C01400248816856
:10143000027811448160704750000020074810B5C1
:10144000016841F010010160032000F073F80020F2
:1014500000F006F800F024F8002010BD0020024043
:1014600070B50D4D04464FF47A712878B1FBF0F059
:101470000A490968B1FBF0F000F0ECFB48B9102C08
:1014800007D200222146501E00F034F800206C6084
:1014900070BD012070BD0000500000205C000020E5
:1014A0000C4808B5816941F001018161816901F051
:1014B00001010091C16941F08051C161C06900F032
:1014C000805000900448416821F0E06141F0806163
:1014D000416008BD001002400000014000F01F0202
:1014E000012191404009800000F1E020C0F8001186
:1014F00070470000F0B40E4B1B680C46C3F3022388
:10150000C3F10705042D00D90425191D072901D2AF
:10151000002300E0DB1E012606FA05F1491E2140EA
:1015200099409E40761E16403143F0BC01F0A2B8AF
:101530000CED00E0064900F0070208684FF6FF03D3
:10154000184040EA0220034A104308607047000038
:101550000CED00E00000FA052DE9F843054600789F
:10156000354CC00754D0E0690026C00008D4E069BB
:1015700040F08050E061E069012600F0805000906A
:101580002E480168C90512D40168804641F4807173
:101590000160FFF72BFD074605E000BFFFF726FDC2
:1015A000C01B642823D8D8F80000C005F6D5206AEF
:1015B00010F4407021D0A98801F4407181421CD000
:1015C000206A1F49012220F440700A6000220A604C
:1015D0002062C00711D0FFF709FD074641F28838A5
:1015E00008E000BFFFF702FDC11B414502D90320FF
:1015F000BDE8F883206A8007F4D5206A696820F482
:101600004070084320621EB1E06920F08050E06124
:101610002878800705D56068A96820F44040084311
:1016200060602878C00605D56068E96820F480000D
:10163000084360600020DBE70010024000700040BB
:10164000400442422DE9F047DFF8548105460E463A
:10165000D8F8000000F00700B0420CD2D8F8001013
:1016600021F007013143C8F80010D8F8000000F05D
:101670000700B0426FD128684A4C810712D5400755
:1016800003D5606840F4E06060602878000703D507
:10169000606840F4605060606068A96820F0F00005
:1016A000084360602878C00744D06868012816D0D5
:1016B0002168022816D0890700294CDA616821F0D8
:1016C000030101436160FFF791FC6968074641F23D
:1016D000883001290ED00229814618D026E02168E1
:1016E0008903E9E78901E7E7FFF780FCC11B49456A
:1016F00001D918E081466068C0F381000128F3D168
:1017000018E000BFFFF772FCC11B49450BD86068A9
:10171000C0F381000228F5D10CE000BFFFF766FCA2
:10172000C11B494502D90320BDE8F087606810F06D
:101730000C0FF3D1D8F80010404601F00701B14278
:101740000BD9016821F0070131430160006800F006
:101750000700B04201D00120E6E72878400705D510
:101760006068E96820F4E06008436060287800075A
:1017700006D56068296920F4605040EAC1006060C5
:1017800000F036F86168084AC1F30311515CC840A3
:10179000064908600020FFF763FE0020C4E7000050
:1017A0000020024000100240184D00085C0000209C
:1017B0000448054900684968044AC1F30221515CA4
:1017C000C84070475C00002000100240284D00080F
:1017D0000448054900684968044AC1F3C221515CC4
:1017E000C84070475C00002000100240284D0008EF
:1017F00012A185B00FC98DE80F0014A0144A00682B
:1018000004905168134801F00C03042B10D0082BEE
:101810000ED1C1F38343C9031DF803000AD55168F3
:1018200004AAC1F34041515C0A4A5043B0FBF1F0B5
:1018300005B0704708494843FAE700000203040571
:10184000060708090A0B0C0D0E0F1010010200000C
:101850000010024000127A0000093D002DE9F84F07
:1018600004460078B94DC00748D06868C0F38100CD
:10187000012807D06868C0F38100022809D1686890
:10188000C00306D52868800338D5606800286FD06B
:1018900034E06068B0F5803F0BD010B1B0F5A02FF8
:1018A00011D0286820F480302860286820F4802037
:1018B00002E0286840F480302860606888B1FFF753
:1018C00095FB064609E0286840F480202860F0E790
:1018D000FFF78CFB801B642875D828688003F7D538
:1018E0000CE0FFF783FB064605E000BFFFF77EFB39
:1018F000801B6428F0D828688003F7D42078944EA1
:1019000080074FF001094FF000083BD5686810F0E0
:101910000C0F07D06868C0F38100022809D16868FD
:10192000C00306D42868800714D5206901281FD178
:1019300010E02069B0B1C6F80090FFF757FB0746EA
:1019400005E000BFFFF752FBC01B0228C4D828687F
:101950008007F7D52868616920F0F80040EAC100E7
:1019600028600FE0C6F80080FFF740FB074606E05E
:10197000E9E000BFFFF73AFBC01B022823D8286824
:101980008007F7D4207800072CD57248A169D9B117
:10199000C0F80090FFF72AFB074604E0FFF726FB9C
:1019A000C01B02280FD8686A8007F7D56A484FF431
:1019B000FA510068B0FBF1F0009000BF0098411EA2
:1019C0000091FAD20EE080E0C0F80080FFF70EFB35
:1019D000074604E0FFF70AFBC01B022875D8686AB7
:1019E0008007F7D42078400760D5E8690027C00059
:1019F00008D4E86940F08050E861E869012700F008
:101A00008050009055480168C90513D40168834689
:101A100041F480710160FFF7E9FA824606E000BFF9
:101A2000FFF7E4FAA0EB0A0064284ED8DBF80000C8
:101A3000C005F5D5E06801280AD008B1052813D003
:101A4000286A20F001002862286A20F0040002E0E1
:101A5000286A40F001002862E06841F2883B98B1B2
:101A6000FFF7C4FA82460BE0286A40F004002862BF
:101A7000EEE700BFFFF7BAFAA0EB0A0159455AD8C2
:101A8000286A8007F6D50CE0FFF7B0FA824605E039
:101A9000FFF7ACFAA0EB0A0159454CD8286A800739
:101AA000F6D41FB1E86920F08050E861E06988B39E
:101AB0006968C1F38101022945D00228C6F8608017
:101AC00004D0FFF793FA044638E034E0FFF78EFACB
:101AD000074604E0FFF78AFAC01B02282BD82868C3
:101AE0008001F7D4206AB0F5803F05D16868A1680D
:101AF00020F4003008436860D4E9080108436968AD
:101B000021F4741108436860C6F86090FFF76EFA1C
:101B1000044606E015E000BFFFF768FA001B022844
:101B200009D828688001F7D50BE000BFFFF75EFAFF
:101B3000001B022802D90320BDE8F88F2868800125
:101B4000F4D40020F8E70120F6E70000001002407E
:101B500000004242800442425C00002000700040CD
:101B600070B5040005D00025A56294F8510010B1AD
:101B700004E0012070BD204600F034F8022084F813
:101B800051002068016821F040010160D4E90101A1
:101B90000843D4E903121143084361690843218BC8
:101BA00001F400710843E1690843216A0843A16A0E
:101BB000084321680860A069042101EA1040616AB5
:101BC0000843216848602168E06A08612068C169AB
:101BD00021F40061C1616565012084F85100002095
:101BE00070BD000030B585B00024009401940294CB
:101BF000039400681449884223D11448816941F450
:101C000080518161816901F480510491816941F0C1
:101C10000401816180690E4D00F004000490A02051
:101C20000090022001900320039069462846FFF7A8
:101C3000F5F84020CDE90004694628460294FFF7F4
:101C4000EDF805B030BD000000300140001002404A
:101C50000008014010B5401EB0F1807F01D3012083
:101C600010BD4FF0E02460610F21601700F002FD0D
:101C70000020A06107202061002010BD7047704740
:101C800030B590F83C20012A20D0012280F83C2079
:101C9000022380F83D3003685C6824F070045C60C7
:101CA00003685C680D682C435C6003689C6824F0E2
:101CB00080049C6003689C6849680C439C6080F8C1
:101CC0003D20002180F83C10084630BD022030BD88
:101CD00010B5040003D094F83D0010B107E00120D6
:101CE00010BD002084F83C00204600F00DF80220D2
:101CF00084F83D00211D206800F08EFE012084F84C
:101D00003D00002010BD000008B50068B0F1804F14
:101D100012D10A48C16941F00101C161C0690022C4
:101D200000F00100009001211C20FFF7E3FBBDE85B
:101D300008401C20FFF7D2BB08BD00000010024085
:101D40000168CA6842F00102CA600068016841F097
:101D500001010160002070470168CA6822F0010299
:101D6000CA600068016A41F21112114207D1016A8A
:101D70009210114203D1016821F00101016000209D
:101D8000704770B5044690F83C00012817D0012533
:101D900084F83C50022084F83D002068826822F0DC
:101DA000770222F47F4282600868502837D00DDC29
:101DB000202859D005DC88B3102841D151E00220F9
:101DC00070BD302853D040283AD13FE060282ED053
:101DD00070280BD0B0F5805F03D0B0F5005F2FD135
:101DE00010E02068816821F0070115E0CB68D1E997
:101DF0000121206800F046FE2168886840F07700E5
:101E000088601DE0CB68D1E90121206800F03AFE2E
:101E10002068816841F48041816011E01EE0CA6859
:101E20004968206800F040FE5021206806E0CA683A
:101E30004968206800F049FE6021206800F02CFE0F
:101E400084F83D50002084F83C0070BDCA684968A1
:101E5000206800F029FE40212068EFE7002120687B
:101E6000ECE710212068E9E720212068E6E730212F
:101E70002068E3E7704770B50446006801694FF0D9
:101E80000005C943890715D4C168C943890711D41E
:101E9000E91E0161012020772068806980072046C3
:101EA00002D0FFF7E7FF04E000F098F8204600F0CA
:101EB00096F8257720680169C943490717D4C16896
:101EC000C943490713D46FF0040101610220207750
:101ED0002068806910F4407F204602D0FFF7CAFFD7
:101EE00004E000F07BF8204600F079F825772068C0
:101EF0000169C943090716D4C168C943090712D447
:101F00006FF008010161042020772068C069800714
:101F1000204602D0FFF7AEFF04E000F05FF8204655
:101F200000F05DF8257720680169C943C90617D418
:101F3000C168C943C90613D46FF0100101610820BC
:101F400020772068C06910F4407F204602D0FFF758
:101F500091FF04E000F042F8204600F040F82577B9
:101F600020680169C943C90708D1C168C943C907C5
:101F700004D1891E0161204600F032F82068016911
:101F8000C943090609D4C168C943090605D46FF0DD
:101F9000800101612046FFF771FE20680169C94395
:101FA000490609D4C168C943490605D46FF0400108
:101FB0000161204600F05AF820680169C94389068A
:101FC0000BD4C168C943890607D46FF020010161B1
:101FD0002046BDE87040FFF752BE70BD70477047A5
:101FE00010B5194C6068401C60602168884226D199
:101FF000012211021548FEF7F4FF1548FFF7ACFE69
:1020000000F07CFB00F08CFC002020606060206110
:1020100028216061084600F06BFB01220D490EA0EB
:1020200000F06AFC3221282000F062FB01220949FD
:102030000BA000F061FCBDE8104000F071BCBDE8F1
:1020400010400348FFF77CBE180000200008014044
:10205000440500200000002054494D455200000076
:10206000434F4D504C4554450000000070477047A9
:1020700070B5026804461068D168536910F00F0FFC
:1020800050D003F0010501F4907635435DD0C207CE
:1020900005D0CA0503D5E26B42F00102E2634207B4
:1020A00005D5DA0703D0E26B42F00202E263820751
:1020B00005D5DA0703D0E26B42F00402E2630207BF
:1020C00005D5DA0703D0E26B42F00802E263E26B67
:1020D000002A33D0800604D5880602D5204600F0B9
:1020E0001CFD20684069E16BC0F38010090700D433
:1020F00028B3204600F003FD2068416949061AD53F
:10210000416921F040014161606BA0B11B4941630D
:10211000606BFEF7D7FC002810D0606B416BBDE808
:1021200070400847830610D58B060ED52046BDE8C3
:10213000704000F0F2BC2046FFF799FF70BD2046CA
:10214000FFF795FF0020E06370BD030606D50B0680
:1021500004D52046BDE8704000F0E2BD4006F3D54E
:102160004806F1D5D168204621F04001D1602021F8
:1021700084F8391000F077F870BD0000EF2A0008ED
:1021800070B5040004D094F83900002510B106E0C1
:10219000012070BD84F83850204600F023F8242038
:1021A00084F839002068C16821F40051C1602046DC
:1021B00000F0FEFC2068016921F490410161206873
:1021C000416921F02A0141612068C16841F4005150
:1021D000C160E563202084F8390084F83A000020CB
:1021E00070BD000030B585B00024009401940294C5
:1021F00003940068184988422CD11848816941F439
:1022000080418161816901F480410491816941F0DB
:10221000040181618069124D00F0040004904FF4C4
:102220000070009002200190032003906946284628
:10223000FEF7F4FD2815CDE900046946284602940E
:10224000FEF7ECFD002211462520FFF753F925206B
:10225000FFF744F905B030BD0038014000100240DE
:102260000008014070477047FEE701684A69D243A1
:1022700052050CD46FF480624A610421016400218C
:1022800040F8301F20224273017301207047002064
:1022900070470000F8B50446C06A1E460D46174652
:1022A000042807D0012805D010F5803F02D0206B0C
:1022B000122804D12068016841F48071016013463E
:1022C00000224FF001112046009600F054F8A0B90A
:1022D0002069B0F5804F12D00620216800EAD510A1
:1022E00040F0F000086133463A460E49204600F0BF
:1022F00073F838B1206C042811D00320F8BD05F024
:10230000FE0000E0E8B221680861064933463A461B
:10231000891F204600F060F80028EBD1F8BD0120AD
:10232000F8BD00000800010070B516460D460446D1
:102330001AE02046FFF799FF08B1012070BD681C24
:1023400012D025B1FEF752FE801BA8420CD954F8DA
:10235000400F40F0200044F81009002020602021A8
:1023600061732073032070BD20684069C04340073B
:10237000DFD4002070BD2DE9F0471E4690460D4683
:102380000446C1F30747DDF8209012E0701C10D01E
:102390002EB1FEF72BFEA0EB0900B04209D90020B8
:1023A00044F8300F20216173A07320730320BDE82F
:1023B000F0872068012F0AD0806925EA0000000418
:1023C000000C06D000214145E0D00020EFE7406935
:1023D000F3E70121F7E700002DE9F0479A4691461F
:1023E0000D46044600264FF02008C1F307472AE0B7
:1023F00020684069C043400512D42068016841F458
:102400000071016021686FF48060486104202064DD
:10241000266384F83D8084F83C600120BDE8F087A5
:10242000B9F1FF3F0FD0B9F1000F05D0FEF7DEFD87
:10243000A0EB0A01494506D944F8306F84F80D80B5
:1024400026730320EAE72068012F07D0D0F8180090
:1024500025EA00000004000CE0D0C9E74069F7E776
:1024600070B516460D4604461AE02046FFF7FDFEFD
:1024700008B1012070BD681C12D025B1FEF7B6FD71
:10248000801BA8420CD954F8400F40F0200044F8BB
:10249000100900202060202161732073032070BD8B
:1024A00020684069C0430006DFD4002070BD0000F2
:1024B0003EB500240D48009401940B49029401603C
:1024C0000125C0E90245446105614FF46021446083
:1024D000C161FEF73DFACDE9004569460348029423
:1024E000FEF7B8F93EBD000000240140680400205A
:1024F0002DE9F04786B000243648009401940294F8
:102500000394816941F010018161816901F010013A
:102510000491816941F004018161816901F0040144
:102520000491816941F00801816180692A4F00F0BE
:1025300008004FF460450490012229463846FEF712
:1025400050FDDFF898904FF48078002241464846CD
:10255000FEF747FDDFF888A0002210215046FEF765
:1025600040FD0095022601250396CDE901546946F8
:102570003846FEF753FC1B4FA802CDE90007694619
:1025800002945046FEF74AFC4FF47840CDE900072C
:10259000694602955046FEF741FCCDF8008003964F
:1025A000CDE9015469464846FEF738FC1020CDE9D4
:1025B0000005CDE9024669465046FEF72FFC002291
:1025C00002212820FEF796FF2820FEF787FF06B09D
:1025D000BDE8F087001002400010014000080140F3
:1025E000000C0140000031100B480A494FF4007202
:1025F00001604FF48271416000218160C16001611E
:10260000C0E90512C1610162416281620A21C162B1
:10261000FFF7A6BA00300140EC04002010B586B0E8
:1026200000241248009401940294039404944FF0FF
:102630008041059401604FF4FA51C0E901144EF64F
:102640006021C0E903148461FFF742FB4FF480501E
:10265000009069460548FFF794FB049404A90348D9
:102660000594FFF70DFB06B010BD000044050020E7
:10267000FEE770470907090E002806DA00F00F0090
:1026800000F1E02080F8141D704700F1E02080F890
:10269000001470477047000070B5802813D240299D
:1026A00011D20B4B012401F007051E79AC40094BF8
:1026B000C90800EBC1100EB132B101E0012A03D00C
:1026C000195CA143195470BD195C2143FAE700005D
:1026D000100000206800002028B1FF224FF4806124
:1026E0000248FDF72FBD0022F8E700006800002037
:1026F000014A1080518070471000002010B501F091
:102700006DF844F62063012278215148FEF714FD4C
:1027100008B1002010BD40F6C210401EFDD1AE220F
:102720000021782001F060F820220021782001F0BB
:102730005BF810220021782001F056F8B022002129
:10274000782001F051F8C8220021782001F04CF8DF
:1027500000221146782001F047F81022002178204D
:1027600001F042F840220021782001F03DF881225A
:102770000021782001F038F8FF220021782001F0B4
:1027800033F8A1220021782001F02EF8A6220021A2
:10279000782001F029F8A8220021782001F024F8FF
:1027A0003F220021782001F01FF8A4220021782088
:1027B00001F01AF8D3220021782001F015F8002248
:1027C0001146782001F010F8D5220021782001F080
:1027D0000BF8F0220021782001F006F8D922002120
:1027E000782001F001F822220021782000F0FCFF7F
:1027F000DA220021782000F0F7FF12220021782051
:1028000000F0F2FFDB220021782000F0EDFF202213
:102810000021782000F0E8FF8D220021782000F0D0
:10282000E3FF14220021782000F0DEFFAF22002118
:10283000782000F0D9FF0020FFF74EFF00F070F87D
:10284000044800210180418001214171084610BDEA
:1028500098040020100000202DE9F047814625480B
:102860000D46924601882A781144802905D2804677
:10287000408869780844402802D30020BDE8F087EA
:1028800000262AE0A9F1200101FB00606A6800240B
:1028900032F810701DE000BF07FA04F0000409D5FB
:1028A000B8F80210B8F800003144204489B280B270
:1028B00052460BE0BAF1000F1AD00022B8F802100D
:1028C000B8F800003144204489B280B2FFF7E4FE3A
:1028D000641C2878A042DFD8761C6878B042D1D832
:1028E000B8F800102A7848461144A8F80010C5E747
:1028F0000122E3E71000002070B515460E4604469D
:1029000009E02A463146FFF7A7FF2178884201D027
:10291000C8B270BD641C20780028F2D1C0B270BD6E
:1029200070B5104D002400BF04F1B000C2B2002108
:10293000782000F059FF00221146782000F054FF63
:1029400010220021782000F04FFF05EBC4128023F5
:102950004021782000F058FF641CE4B2082CE3D337
:1029600070BD0000680000207047FEF75FBD30B505
:1029700093B028216846FDF7ECFB14210AA8FDF767
:10298000E8FB002401200F940225049000951020FC
:10299000119405901094129407946846FEF75EFF18
:1029A0000F20CDE90A040C940D9400210AA80E947E
:1029B000FEF748FE0FA80F951194FEF7CDFD13B05A
:1029C00030BD00000D48016841F00101016041681F
:1029D0000B4A1140416001680A4A114001600168D8
:1029E00021F480210160416821F4FE0141604FF42F
:1029F0001F0181600449C003086070470010024055
:102A00000000FFF8FFFFF6FE08ED00E00148FFF7C9
:102A100032BA000044050020F0B50268164B174C8E
:102A2000174D4FF08047984205D0B84203D0A042DE
:102A300001D0A84203D122F070064A68324398427E
:102A400005D0B84203D0A04201D0A84203D122F45D
:102A50004074CA68224322F080044A69224302601B
:102A60008A68C2620A688262984201D10969016378
:102A700001214161F0BD0000002C01400004004034
:102A80000008004010B5846842EA032224F47F4421
:102A90000A432243826010BD826822F070020A431A
:102AA00042F007018160704710B5036A046A24F0A0
:102AB00001040462846924F0F00444EA021423F05F
:102AC0000A020A438461026210BD10B5036A23F052
:102AD000100303628369046A23F4704343EA0232F9
:102AE00024F0A00343EA01118261016210BD10B518
:102AF000406A0021C185C184FFF7B9FA10BD0168A1
:102B0000CA6822F49072CA6001684A6922F0010220
:102B10004A61202180F83A10704710B590F83A10B9
:102B2000222901D0022010BD8168B1F5805F11D04B
:102B30000169002901681FD0496801F07F03816A9B
:102B40004A1C82620B70C18D491E0904090CC185A3
:102B500018D02BE00269816A002A0268526805D009
:102B6000D2B20A80816A491C8162ECE7C2F3080292
:102B70000A80816A891CF7E74A68816A4B1C836274
:102B80000A70E0E70168CA6822F02002CA600168A2
:102B9000CA6822F48072CA6001684A6922F00102A0
:102BA0004A61202180F83A10FFF75CFB002010BD3D
:102BB0002DE9F041044600680169E26821F44051C2
:102BC000114301612169A0680843616908432168D4
:102BD000CA6841F20C639A430243CA6020684169A3
:102BE000A26921F44071114341614C492068642578
:102BF000322688423CD1FEF7EBFD00EBC00101EB31
:102C0000001061688900B0FBF1F7FEF7E1FD00EB11
:102C1000C00101EB00106168B0468900B0FBF1F023
:102C2000B0FBF5F06FF01801484307EB800106EBAD
:102C30000110B0FBF5F000F0F006FEF7C9FD00EB67
:102C4000C00101EB001061688900B0FBF1F0B0FB3E
:102C5000F5F006EB0016FEF7BBFD00EBC00101EB43
:102C6000001061688900B0FBF1F7FEF7B1FD3BE0B1
:102C7000FEF79EFD00EBC00101EB001061688900CA
:102C8000B0FBF1F7FEF794FD00EBC00101EB001083
:102C90006168B0468900B0FBF1F0B0FBF5F06FF071
:102CA0001801484307EB800106EB0110B0FBF5F07B
:102CB00000F0F006FEF77CFD00EBC00101EB001018
:102CC00061688900B0FBF1F0B0FBF5F006EB00168F
:102CD000FEF76EFD00EBC00101EB0010616889009A
:102CE000B0FBF1F7FEF764FD00EBC00101EB001053
:102CF00061688900B0FBF1F0B0FBF5F06FF01801EE
:102D0000484307EB800108EB0110B0FBF5F02168A8
:102D100000F00F0030448860BDE8F08100380140C9
:102D200090F83910212901D0022070478168B1F54F
:102D3000805F016A0BD04A1C026202680978516008
:102D4000C18C491E0904090CC1840ED017E0098802
:102D50000268C1F30801516001690029016A02D0CB
:102D6000491C0162ECE7891CFBE70168CA6822F094
:102D70008002CA600068C16841F04001C160002063
:102D8000704700000148FFF773B900008405002078
:102D9000FEE700000FB4084B10B504A902AA03987F
:102DA00000F0DEF8044602A9002000F070FC204686
:102DB00010BC5DF814FB00008F36000802E008C864
:102DC000121F08C1002AFAD170477047002001E0A5
:102DD00001C1121F002AFBD1704700002DE9FF5FDF
:102DE00082B00021DDE90430020DDDF840B003437C
:102DF00018D044F61050A2F2FF3242431514119835
:102E000001281FD0A5EB0B00401C5FEA000A4FF021
:102E100000064E4FDFF83891B046504615D5CAF13E
:102E2000000413E0119801244AA3012801D16FEA9C
:102E30000B010298119AC0E90031C0E9024206B0C4
:102E4000BDE8F09FCBF10000DFE704460021404AD7
:102E5000491842EB0450CDE9001012E0E00707D01A
:102E600032463B4640464946FDF70EFB80468946C2
:102E700032463B4610461946FDF706FB06460F460E
:102E80006410002CEAD1DDE90401DDE90023BAF188
:102E9000000F06DAFDF7F8FA42464B46FDF7F4FA62
:102EA00005E0FDF763FB42464B46FDF75FFB04463A
:102EB0000E460022284BFDF7E1FB03D84FF0FF3010
:102EC000014607E00022254B20463146FDF735FA42
:102ED000FDF7BBFB102409E0002C0ADB0A220023CB
:102EE000FDF7C3F9039B30321A55641E50EA010204
:102EF000F2D1641C039AC4F111031444119A012AFB
:102F000003D0012208430DD10AE0084304D0002079
:102F10004FF0110B119072E7A3EB0B056D1E0DE046
:102F20005B4504DD4FF0000205F1010504E003DA22
:102F30004FF00002A5F10105002AECD0029811998A
:102F4000C0E90231C0E9004579E700000000144003
:102F50000000F03F300000000000F0430000E03FC0
:102F60002DE9FF4F95B09B468946064600250FE2A6
:102F7000252877D100242746F84A0121059400E04E
:102F8000044316F8013F203B01FA03F01042F7D149
:102F900030782A2811D06FF02F033078A0F130025A
:102FA000092A16D8059A44F0020402EB820203EBC8
:102FB00042021044761C0590EFE759F8042B059265
:102FC000002A03DA504244F40054059044F002040D
:102FD000761C30782E2816D116F8010F44F0040420
:102FE0002A280DD06FF02F023078A0F13003092B82
:102FF00009D807EB870302EB4303C718761CF3E7F6
:1030000059F8047B761C30786C280FD006DC4C28ED
:1030100017D068280DD06A2814D104E0742810D085
:103020007A280FD10DE044F400140AE044F480142F
:1030300001E044F440147278824202D104F5801415
:10304000761C761C307866280BD013DC582877D095
:1030500009DC002875D04528F6D04628F4D047284A
:103060001AD19DE118E0632835D0642879D065280D
:1030700012D195E1702873D008DC6728F1D0692857
:103080006FD06E280DD06F2806D1B5E073282CD0F4
:10309000752875D0782874D05A46179990476D1CBA
:1030A00075E1C4F30250022809D003280DD0D9F8E5
:1030B000001004280DD00D6009F1040967E1D9F86A
:1030C0000010EA17C1E90052F6E7D9F800100D80A8
:1030D000F2E70D70F0E719F8041B8DF800100020DE
:1030E0008DF80100EA46012003E059F804AB4FF0E7
:1030F000FF3061074FF0000102D40DE008F101013B
:103100008846B9420FDA8045F8DB1AF80810002922
:10311000F4D108E008F1010188468142FADB1AF88F
:1031200008100029F6D105985B46A0EB0807214658
:103130003846179A00F094FA284400EB080507E097
:103140004DE029E10DE01AF8010B5A461799904716
:10315000B8F10108F7D25B4621463846179A13E1C9
:1031600042E00A220092C4F302524FF0000A022AFF
:1031700008D059F804CB032A4FEAEC710AD00DE0CD
:1031800029E02AE009F1070121F00702F2E802C173
:10319000914609E00FFA8CFC4FEAEC71042A03D146
:1031A0004FFA8CFC4FEAEC71002907DA0A4600213D
:1031B000DCF1000C61EB02012D2202E0220504D5B6
:1031C0002B228DF80420012203E0E20701D0202207
:1031D000F7E7904659E00A2102E010220DE01021A5
:1031E0004FF0000A00910BE010224FF0000A44F06B
:1031F00004040827009203E008224FF0000A00921E
:10320000C4F30252022A05D059F804CB0021032A44
:1032100008D009E009F1070121F00702F2E802C134
:10322000914605E01FFA8CFC042A01D10CF0FF0C3A
:103230004FF00008220728D5702806D0009B83F0A5
:10324000100353EA0A0305D00EE040228DF8042053
:10325000012208E05CEA010206D030228DF8042049
:103260008DF8050002229046009B83F0080353EA84
:103270000A030AD15CEA010201D1620705D53022B6
:103280008DF804204FF001087F1E582804D034A088
:1032900003900EA802900DE036A0F9E75346604671
:1032A000009AFCF7E2FF84460398825C0298401E75
:1032B000029002705CEA0100F0D1029806A9081A97
:1032C00000F1200A600702D524F4803400E00127D1
:1032D000574502DDA7EB0A0000E0002000EB0A01E1
:1032E000009005984144401A0590E00306D45B46DF
:1032F0002146179A059800F0B3F90544002706E027
:1033000001A85A46C05D179990476D1C7F1C474520
:10331000F6DBE0030CD55B462146179A059800F0D2
:103320009FF9054404E030205A46179990476D1CD8
:103330000099481E00900029F5DC08E002980299E7
:103340005A460078491C0291179990476D1CBAF1B2
:103350000001AAF1010AF1DC65E100000928010081
:1033600030313233343536373839616263646566FB
:1033700000000000303132333435363738394142BD
:10338000434445460000000000F058F90544761C0F
:10339000307800287FF4ECAD19B02846BDE8F08FF6
:1033A000620700D4062709F1070222F0070CFCE8A7
:1033B0000223E14603F000485FEA080C02D00FF256
:1033C000702C0DE05FEA045C02D50FF2682C07E078
:1033D0005FEAC47C02D00FF2602C01E0AFF2700C07
:1033E0004FF0FF3823F00043CDF850C065280CD0D3
:1033F00006DC452809D046281DD047283DD13DE0B0
:10340000662818D067287ED138E00021112F01DB13
:10341000112000E0781CCDE9000106A90EA8FFF7F5
:10342000DDFCDDE90F010E9A03910021009207F106
:10343000010A04914DE04FF000400097CDE90110E2
:1034400006A90EA8FFF7CAFCDDE90F0203920E9B46
:1034500011990022DDF80CA00093049211B9791C97
:1034600000EB010AB7EB0A0004D4C0F1FF3007F10A
:10347000010A0490AAEB0700019044E0012F00DA52
:1034800001270021112F01DD112000E03846CDE990
:10349000000106A90EA8FFF7A1FCDDE90F010E9AB5
:1034A0000391002104910092BA4621070CD403999C
:1034B000514500DA8A46BAF1010F05DD009AAAF1FA
:1034C0000101515C302908D0B84202DA10F1040F32
:1034D00006DA0121CDE9011015E0AAF10101E9E7C1
:1034E000002805DC049901440491AAEB000102E0E4
:1034F000411C514500DD8A460499401A401C019048
:103500004FF000400290200704D40198504501DBA1
:10351000CDF8048000208DF84F0002980DF14F0780
:10352000B0F1004F25D02B200E9002984FF00208EA
:1035300000280CDA404202902D200E9007E00A216C
:103540000298FCF77CFE3031029007F8011DB8F1BB
:103550000001A8F10108F2DC02980028EFD1791EE1
:103560000E980870307800F0200040F0450007F811
:10357000020D12A8C01B00F107081498007800B1D2
:10358000012000EB0A01019801EBE071059841442C
:10359000401A401E0590E00306D45B462146179A68
:1035A000059800F05DF805441498007818B15A4663
:1035B000179990476D1CE00324D55B462146179A66
:1035C000059800F04DF805441CE00498002807DB3E
:1035D000DDE90301884203DD0098405C179901E0B2
:1035E000179930205A469047049805F10105401C70
:1035F00004900198401E019004D12E205A4617993C
:1036000090476D1CBAF10001AAF1010ADDDC05E06A
:1036100017F8010B5A46179990476D1CB8F1000135
:10362000A8F10108F4DC5B462146179A0598ABE641
:103630002D0000002B000000200000002DE9F041CB
:10364000044600251E461746880404D405E0394682
:103650002020B0476D1C641EF9D52846BDE8F081D6
:103660002DE9F041044600251E469046C80301D5C9
:10367000302700E02027880404D505E0414638467D
:10368000B0476D1C641EF9D52846BDE8F0810A6874
:10369000531C0B601070704710B5002821D0114BDF
:1036A0000022001F196803E0814203D80A464968D6
:1036B0000029F9D152B11368841A9C4204D10068E0
:1036C00018441060104602E0506000E0186039B104
:1036D00002680B1A934203D10B681A4402604968CE
:1036E000416010BD60000020FDF7A8FEFFF73FF924
:1036F000FEF7FEFEFEF7DCFE1948184900240160C3
:103700004FF41651C0E901140C21C460C0E9044112
:103710008461C461FEF734FDFEF780FFFEF764FFAD
:103720000F481049EC3801600F49C0E901144FF40B
:103730008041C0E9034144618461C4610462FDF7D2
:103740005BFCFEF7DBFF012211020848FDF749FC94
:103750000020FEF7C1FFFFF7E3F8FEE70038014065
:103760008405002000540040801A06000008014033
:10377000F0B50B30154D20F007010024144A0FE07E
:1037800003688B420BD38B4205D95E1A43184768F6
:10379000C3E9006700E04368136002C004E0021D53
:1037A00010680028ECD12046002802D1286808B112
:1037B0000020F0BD064A07481060074A121A22F09E
:1037C0000702C0E9002401202860D7E76400002038
:1037D00060000020CC050020C80700200148401EE2
:1037E000FDD1704790D003001CB502238DF8041062
:1037F0000A2100918DF80520014601AA0148FDF734
:103800004BFD1CBD980400202DE9F84380461C4662
:1038100016460F46581CFFF7ABFF05460770012000
:1038200005E0311811F8011C2954401CC0B2A04217
:10383000F7D90A20009023462A4641460348FDF75F
:103840002BFD2846BDE8F843FFF726BF980400206B
:103850000000000000000000000000000000000068
:1038600000000000001000100010001000100010F8
:1038700000000010000000000028002800280000C0
:1038800000000000000000000000000000240024F0
:10389000007C00240048007C004800480000000034
:1038A0000038005400500038001400540054003810
:1038B0000010000000200054005800300028005480
:1038C000001400080000000000100028002800106C
:1038D00000340048004800340000000000100010D0
:1038E00000100000000000000000000000000000C8
:1038F00000080010002000200020002000200020F0
:10390000001000080020001000080008000800084F
:1039100000080008001000200010003800100028E7
:103920000000000000000000000000000000000097
:1039300000100010007C00100010000000000000CB
:103940000000000000000000000000000000001067
:10395000001000100000000000000000000000380F
:103960000000000000000000000000000000000057
:103970000000000000000010000000000008000827
:1039800000100010001000100020002000000000B7
:10399000003800440044005400440044004400380F
:1039A0000000000000100030005000100010001057
:1039B0000010001000000000003800440044000423
:1039C000000800100020007C0000000000380044C7
:1039D0000004001800040004004400380000000047
:1039E00000080018002800280048007C0008000893
:1039F00000000000007C004000400078000400044B
:103A00000044003800000000003800440040007806
:103A1000004400440044003800000000007C000422
:103A2000000800100010002000200020000000000E
:103A3000003800440044003800440044004400388A
:103A4000000000000038004400440044003C000432
:103A500000440038000000000000000000100000DA
:103A60000000000000000010000000000000000046
:103A70000000001000000000000000100010001006
:103A800000000000000C003000400030000C00007E
:103A900000000000000000000000007C0000007C2E
:103AA000000000000000000000000000006000189E
:103AB000000400180060000000000000003800440E
:103AC00000040008001000100000001000000000BA
:103AD00000380044004C0054005C004000400038B6
:103AE0000000000000100028002800280028007CAA
:103AF00000440044000000000078004400440078C6
:103B000000440044004400780000000000380044F5
:103B10000040004000400040004400380000000029
:103B20000070004800440044004400440048007015
:103B300000000000007C00400040007C004000408D
:103B40000040007C00000000007C00400040007845
:103B500000400040004000400000000000380044E9
:103B600000400040005C00440044003800000000B9
:103B7000004400440044007C0044004400440044ED
:103B800000000000003800100010001000100010AD
:103B900000100038000000000004000400040004CD
:103BA0000004000400440038000000000044004805
:103BB0000050006000500048004800440000000031
:103BC0000040004000400040004000400040007CB9
:103BD000000000000044006C006C005400440044ED
:103BE00000440044000000000044006400640054ED
:103BF0000054004C004C0044000000000038004419
:103C00000044004400440044004400380000000028
:103C10000078004400440044007800400040004028
:103C20000000000000380044004400440044004408
:103C300000540038000400000078004400440044B0
:103C400000780048004800440000000000380044AC
:103C5000004000300008000400440038000000006C
:103C6000007C001000100010001000100010001068
:103C700000000000004400440044004400440044AC
:103C800000440038000000000044004400440028C4
:103C9000002800280010001000000000004400442C
:103CA000005400540054006C00280028000000005C
:103CB00000440028002800100010002800280044BC
:103CC00000000000004400440028002800100010FC
:103CD0000010001000000000007C0004000800102C
:103CE000001000200040007C0000000000180010C0
:103CF000001000100010001000100010001000183C
:103D00000020002000100010001000100008000823
:103D10000000000000300010001000100010001023
:103D2000001000100010003000100028002800448F
:103D30000000000000000000000000000000000083
:103D4000000000000000000000000000000000FE75
:103D50000020001000000000000000000000000033
:103D6000000000000000000000380044003C004457
:103D7000004C003400000000004000400058006487
:103D800000440044006400580000000000000000EF
:103D900000380044004000400044003800000000AB
:103DA000000400040034004C00440044004C003483
:103DB000000000000000000000380044007C0040CB
:103DC0000044003800000000000C0010007C0010CF
:103DD00000100010001000100000000000000000A3
:103DE0000034004C00440044004C003400040078CF
:103DF0000040004000580064004400440044004477
:103E00000000000000100000007000100010001002
:103E100000100010000000000010000000700010F2
:103E20000010001000100010001000E000400040E2
:103E300000480050006000500048004400000000AE
:103E40000070001000100010001000100010001092
:103E500000000000000000000078005400540054EE
:103E600000540054000000000000000000580064EE
:103E70000044004400440044000000000000000032
:103E800000380044004400440044003800000000B2
:103E90000000000000580064004400440064005822
:103EA00000400040000000000034004C004400448A
:103EB000004C0034000400040000000000580064BE
:103EC00000400040004000400000000000000000F2
:103ED00000380044003000080044003800000000B2
:103EE0000020002000780020002000200020001882
:103EF00000000000000000000044004400440044B2
:103F0000004C0034000000000000000000440044A9
:103F10000028002800280010000000000000000019
:103F2000005400540054006C0028002800000000D9
:103F30000000000000440028001000100028004489
:103F40000000000000000000004400440028002899
:103F5000001000100010006000000000007C00084D
:103F6000001000200040007C00000000001800103D
:103F70000010001000200020001000100010001899
:103F800000100010001000100010001000100010B1
:103F90000010001000300010001000100008000891
:103FA000001000100010003000000000000000743D
:103FB000004C0000000000000000000000000000B5
:103FC00000000000000000000000000000000000F1
:103FD00000000000000000000000000000000000E1
:103FE0000000000C000C000C000C000C000C000C7D
:103FF000000C000C000C000C0000000C000C000079
:10400000000000000000001B001B001B001B001B29
:1040100000000000000000000000000000000000A0
:1040200000000000000000000000801980198019C5
:104030008019C07FC07F80190033C07FC07F0033EC
:104040000033003300330000000000000000001EB9
:10405000003F807580650074003C001E00078005ED
:10406000806580658075003F001E0004000400002C
:104070000000007000D840D8C0D880D90073000676
:10408000000C801BC036C066C046C006800300001E
:10409000000000000000001E003F0033003300332A
:1040A000001E000CC03CC066806380618063C03E1F
:1040B000801C0000000000000000000C000C000C40
:1040C000000C000C000000000000000000000000D8
:1040D000000000000000000000000000800000015F
:1040E0000003000600060004000C000C000C000C8D
:1040F000000C000C00040006000600030001800014
:10410000002000100018000C000C0004000600063F
:1041100000060006000600060004000C000C001853
:10412000001000200000000C002D003F001E003396
:10413000000000000000000000000000000000007F
:104140000000000000000000000000000000000C63
:10415000000C000C000CC0FFC0FF000C000C000C99
:10416000000C000000000000000000000000000043
:10417000000000000000000000000000000000003F
:10418000000000000000000C000C00040004000807
:10419000000000000000000000000000000000001F
:1041A0000000001E001E00000000000000000000D3
:1041B00000000000000000000000000000000000FF
:1041C0000000000000000000000000000000000CE3
:1041D000000C0000000000000000000300030003CA
:1041E0000006000600060006000C000C000C000C87
:1041F0000018001800180000000000000000001E59
:10420000003F0033806180618061806D806D8061DE
:10421000806180610033003F001E0000000000004C
:1042200000000006000E001E0036002600060006F4
:104230000006000600060006000600060006000054
:10424000000000000000001E003F8073806180615C
:10425000800100030006000C001800300060807F21
:10426000807F0000000000000000001C003E006392
:1042700000630003000E000E0003800180018061D6
:104280008073003F001E00000000000000000006D8
:10429000000E000E001E001E0016003600360066DE
:1042A000807F807F000600060006000000000000FE
:1042B0000000007F007F006000600060006E007FF3
:1042C00080638001800180618073003F001E0000D8
:1042D000000000000000001E003F8033806100608D
:1042E000006E007F80738061806180618033003F59
:1042F000001E0000000000000000807F807F800121
:104300000003000300060006000C000C000C00086F
:104310000018001800180000000000000000001E37
:10432000003F8063806180610021001E003F80614A
:10433000806180618061003F001E0000000000007D
:104340000000001E003F0073806180618061807307
:10435000803F801D800180610073003F001E0000CF
:104360000000000000000000000000000000000C41
:10437000000C000000000000000000000000000C25
:10438000000C000000000000000000000000000021
:1043900000000000000C000C000000000000000005
:1043A0000000000C000C00040004000800000000E5
:1043B0000000000080008003000E0038006000381C
:1043C000000E8003800000000000000000000000DC
:1043D00000000000000000000000807F807F0000DF
:1043E0000000807F807F00000000000000000000CF
:1043F000000000000000000000000000004000700D
:10440000001C000780010007001C00700040000035
:1044100000000000000000000000001F803FC0718D
:10442000C060C000C00180030007000E000C000C3B
:104430000000000C000C0000000000000000001E46
:10444000003F803180718063806F806D806D806FF0
:10445000806700600032003E001C00000000000089
:104460000000000E000E001B001B001B001B803113
:104470008031803F803F8031C060C060C0600000FC
:10448000000000000000007C007E00630063006309
:104490000063007E007E0063806180618063007F36
:1044A000007E0000000000000000001E003F803180
:1044B00080610060006000600060006000608061FA
:1044C0008031003F001E0000000000000000007C62
:1044D000007F0063806380618061806180618061B2
:1044E000806100630063007E007C0000000000002B
:1044F0000000807F807F0060006000600060007FBF
:10450000007F0060006000600060807F807F0000AE
:10451000000000000000807F807F0060006000607D
:104520000060007F007F006000600060006000604D
:1045300000600000000000000000001E003F80310D
:1045400080610060006000608063806380618061E2
:104550008031803F001E00000000000000008061EC
:1045600080618061806180618061807F807F806107
:1045700080618061806180618061000000000000D6
:104580000000003F003F000C000C000C000C000C71
:10459000000C000C000C000C000C003F003F000061
:1045A0000000000000008001800180018001800186
:1045B0008001800180018001806180618073003F03
:1045C000001E0000000000000000C0608061006369
:1045D00000660066006C0078007C00660066006380
:1045E00080618061C0600000000000000000006089
:1045F00000600060006000600060006000600060BB
:10460000006000600060807F807F0000000000008C
:104610000000C071C071C07BC07AC06AC06AC06E41
:10462000C064C060C060C060C060C060C0600000A6
:1046300000000000000080718071807980798079AD
:10464000806D806D806D8065806780678067806326
:1046500080630000000000000000001E003F0033E7
:104660008061806180618061806180618061806142
:104670000033003F001E0000000000000000007E2C
:10468000007F80638061806180618063007F007E45
:10469000006000600060006000600000000000003A
:1046A0000000001E003F00338061806180618061F6
:1046B00080618061806580670033803F401E00001C
:1046C000000000000000007E007F80638061806148
:1046D0008063007F007E006600630063806180610C
:1046E000C0600000000000000000000E001F8031CC
:1046F000803100300038001E000780038061806137
:104700008031003F001E0000000000000000C0FFDC
:10471000C0FF000C000C000C000C000C000C000C86
:10472000000C000C000C000C000C0000000000004D
:104730000000806180618061806180618061806152
:1047400080618061806180618073003F001E000095
:10475000000000000000C060C060C0608031803197
:104760008031001B001B001B001B000E000E000E02
:1047700000040000000000000000C0C0C0C0C0C0B5
:10478000C0C0C0C0C0CC804C804C805E8052805283
:104790008073806180610000000000000000C0C0E4
:1047A000806080610033003B001E000C000C001E86
:1047B000001F003B80718061C0C00000000000004D
:1047C0000000C0C08061806100330033001E001E05
:1047D000000C000C000C000C000C000C000C000085
:1047E000000000000000803F803F800100030003C4
:1047F0000006000C000C0018001800300060807FDC
:10480000807F000000000000000F000F000C000C73
:10481000000C000C000C000C000C000C000C000C38
:10482000000C000C000C000C000F000F0000001822
:1048300000180018000C000C000C000C000600060C
:104840000006000600030003000300000000000053
:10485000001E001E000600060006000600060006F8
:104860000006000600060006000600060006000618
:10487000001E001E0000000C000C001E0012003381
:104880000033806180610000000000000000000033
:104890000000000000000000000000000000000018
:1048A0000000000000000000000000000000000008
:1048B0000000000000000000E0FF000000000038E1
:1048C0000018000C000000000000000000000000C4
:1048D00000000000000000000000000000000000D8
:1048E00000000000000000000000001F803F806109
:1048F0008001801F803F80618063807FC03800001E
:104900000000000000000060006000600060006EB9
:10491000007F807380618061806180618073007F2F
:10492000006E000000000000000000000000000019
:104930000000001E003F80738061006000608061A5
:104940008073003F001E0000000000000000800196
:10495000800180018001801D803F807380618061C3
:10496000806180618073803F801D00000000000036
:1049700000000000000000000000001E003F007367
:104980008061807F807F00608071003F001E00009A
:10499000000000000000C007C00F000C000C807F6A
:1049A000807F000C000C000C000C000C000C000CB4
:1049B000000C0000000000000000000000000000EB
:1049C000801D803F80738061806180618061807321
:1049D000803F801D80018063007F003E00000060FA
:1049E000006000600060006F807F80718061806186
:1049F0008061806180618061806100000000000052
:104A000000000006000600000000003E003E000618
:104A1000000600060006000600060006000600006C
:104A2000000000000006000600000000003E003EFE
:104A30000006000600060006000600060006000646
:104A400000060046007E003C000000600060006040
:104A50000060806100630066006C007C007600638B
:104A600000638061C0600000000000000000003EA4
:104A7000003E0006000600060006000600060006CE
:104A80000006000600060006000600000000000008
:104A90000000000000000000000080DDC0FFC0CE6C
:104AA000C0CCC0CCC0CCC0CCC0CCC0CCC0CC000032
:104AB0000000000000000000000000000000006F87
:104AC000807F8071806180618061806180618061B0
:104AD00080610000000000000000000000000000F5
:104AE0000000001E003F80738061806180618061F2
:104AF0008073003F001E0000000000000000000066
:104B000000000000006E007F807380618061806122
:104B100080618073007F006E006000600060006054
:104B20000000000000000000801D803F8073806155
:104B30008061806180618073803F801D8001800181
:104B400080018001000000000000000000000067FC
:104B5000803F00390030003000300030003000303D
:104B60000030000000000000000000000000000015
:104B70000000001E803F80610060007F803F800158
:104B80008061007F001E00000000000000000000A7
:104B9000000800180018007F007F00180018001897
:104BA000001800180018801F800F0000000000008F
:104BB0000000000000000000000080618061806152
:104BC00080618061806180618063807F803D0000C2
:104BD0000000000000000000000000000000C060B5
:104BE000803180318031001B001B001B000E000E45
:104BF00000060000000000000000000000000000AF
:104C0000000080DD80DD80DD005500550055007717
:104C100000770022002200000000000000000000D9
:104C2000000000000000806100330033001E000C13
:104C3000000C001E00330033806100000000000003
:104C400000000000000000008061806180310033BE
:104C50000033001B001B001B000E000E000E001C8A
:104C6000007C007000000000000000000000C07F19
:104C7000C07F800100030006000C00180030C07FD8
:104C8000C07F0000000000008003800700060006CF
:104C9000000600060006000E001C001C000E0006A8
:104CA00000060006000600068007800300060006D6
:104CB00000060006000600060006000600060006C4
:104CC00000060006000600060006000600060006B4
:104CD0000038003C000C000C000C000C000C000E16
:104CE00000070007000E000C000C000C000C000C6C
:104CF000003C003800000000000000000000000040
:104D000000008038807F00470000000000000000A5
:104D10000000000000000000000000000000000093
:104D20000102030406070809000000000102030451
:104D3000504D00080000002068000000BC2D000855
:104D4000B84D000868000020600B0000CC2D000862
:104D5000070A0000503800080B120000BC3F000892
:104D60000000000000000000000000000000000043
:104D70000000000000000000000000000000000033
:104D80000000000000000000000000000000000023
:104D90000000000000000000000000000000000013
:104DA00001000000100000000000000000A24A0402
:084DB0000000000000000000FB
:04000005080000ED02
:00000001FF
